:100000000C9466000C9485000C9485000C9485007B
:100010000C9485000C9485000C9485000C9485004C
:100020000C9485000C9485000C9485000C9485003C
:100030000C9485000C9485000C9485000C9485002C
:100040000C9485000C9433050C943D050C948500AC
:100050000C9485000C9485000C9485000C9485000C
:100060000C9485000C9485000C9485000C948500FC
:100070000C9485000C94AE050C9485000C948500BE
:100080000C9485000C9485000C9485000C948500DC
:100090000C948E010C941F010C9485000C94850027
:1000A0000C9485000C9485000C9485000C948500BC
:1000B0000C9485000C9485000C9485000C948500AC
:1000C0000C9485000C9485000C94850011241FBEAF
:1000D000CFEFD1E2DEBFCDBF12E0A0E0B2E0E0E9B9
:1000E000FDE000E00BBF02C007900D92A23FB107F8
:1000F000D9F713E1A2EFB2E001C01D92AD39B1070B
:10010000E1F70E9487000C94C6060C9400000F9340
:100110001F93F89480E8809361001092610086E656
:100120009EE00197F1F70E9447050E94C50383E016
:1001300090E00E94C50180E092E00E94820183B7B6
:10014000817F83BF789480E0813019F08230D9F4C8
:1001500004C00E9495058823E1F70E94B502892B0F
:1001600081F080919C13882319F40E94430302C0FC
:100170000E94C4028C01C8010E9464018823D9F73F
:10018000ECCF0E94B0020E94E9018823E9F683B710
:10019000816083BF889583B78E7F83BFF4CF209122
:1001A000860330918703C90108950F931F93DF934E
:1001B000CF930F92CDB7DEB78E010F5F1F4F8CE349
:1001C00093E0B8010E947F048823C9F789810F90CA
:1001D000CF91DF911F910F910895EF92FF920F93AE
:1001E0001F93CF93DF937C018B01809186039091C5
:1001F0008703892B11F481E01BC0C0E0D0E014C05C
:100200000E94D500F701EC0FFD1F80838A3059F45E
:1002100011828091860390918703019790938703C1
:100220008093860304C02196C017D10748F380E06D
:10023000DF91CF911F910F91FF90EF9008951F9242
:100240000F920FB60F920BB60F9211242F933F937C
:100250004F935F936F937F938F939F93AF93BF93CE
:10026000EF93FF93DF93CF930F92CDB7DEB782EF7B
:1002700092E0BE016F5F7F4F0E947F04882321F4CC
:1002800089818093CE0005C08091C9008F7D8093C5
:10029000C9000F90CF91DF91FF91EF91BF91AF9186
:1002A0009F918F917F916F915F914F913F912F918E
:1002B0000F900BBE0F900FBE0F901F9018958CE300
:1002C00093E00E942B050895BC0182EF92E00E940A
:1002D0001F04982F882329F48091C900806280939D
:1002E000C900892F0895682F82EF92E00E94E803E9
:1002F000982F882329F48091C90080628093C900D7
:10030000892F0895CF93DF93EC0102C00E947301FF
:1003100089918823D9F7DF91CF9108951F920F9289
:100320000FB60F920BB60F9211242F933F934F935A
:100330005F936F937F938F939F93AF93BF93EF934D
:10034000FF936091CE006A3049F4809186039091CA
:100350008703019690938703809386038CE393E051
:100360000E94E803FF91EF91BF91AF919F918F9110
:100370007F916F915F914F913F912F910F900BBEA5
:100380000F900FBE0F901F9018950F931F938C0125
:10039000109287031092860382EF92E06CEF72E076
:1003A00040E450E00E94CE038CE393E066E473E007
:1003B00040E450E00E94CE0388E98093C90086E0C3
:1003C0008093CA001093CD000093CC001F910F9131
:1003D00008959F92AF92BF92CF92DF92EF92FF92D9
:1003E0000F931F93DF93CF93CDB7DEB7A1970FB6CF
:1003F000F894DEBF0FBECDBF8E010F5F1F4FC80147
:1004000060E270E00E94ED00882309F096C08EE063
:1004100092E0B80143E050E00E947406009709F0B2
:100420007FC0C80162E172E00E946F0680E090E048
:1004300062E172E00E946F06009719F4AA24BB24BF
:1004400003C00E942A065C0180E090E062E172E055
:100450000E946F06009721F4EE24FF24870107C055
:100460000E944806AC01CB01DA017C018D0180E0DD
:1004700090E062E172E00E946F06009711F4992407
:1004800003C00E942A06982E80E090E062E172E0AC
:100490000E946F06009719F4CC24DD2403C00E944B
:1004A0002A066C0180E090E062E172E00E946F0633
:1004B000009721F00E942A0680939C13A114B10496
:1004C00029F1E114F1040105110501F180919C135A
:1004D000813099F4B801A70182E0440F551F661FCF
:1004E000771F8A95D1F74E0D5F1D601F711F435A0C
:1004F0005F4F6F4F7F4FC50103C0C501B801A70112
:10050000292D86010E94610581E018C084E192E0F6
:100510000E94820187E20E947301CE01019608C009
:1005200087E292E00E94820187E20E947301C80183
:100530000E94820187E20E94730180E0A1960FB6BB
:10054000F894DEBF0FBECDBFCF91DF911F910F9109
:10055000FF90EF90DF90CF90BF90AF909F90089565
:1005600088E893E00E94DD03089588E893E00E9404
:100570002B059C0136952795C9010895BC0188E893
:1005800093E00E941F0408958F929F92AF92BF92B2
:10059000CF92DF92EF92FF920F931F93DF93CF934F
:1005A00000D0CDB7DEB70E94B502059708F45CC055
:1005B00027E3A22E22E0B22E00E010E0CC24DD24BE
:1005C00076014E010894811C911CB80160957095CC
:1005D000635A7F4F88E893E0A4010E94F4048823C3
:1005E00099F469817A81882777FD8095982FF501A4
:1005F00020813181442737FD4095542F0E940B06FE
:10060000C60ED71EE81EF91E0F5F1F4F82E090E056
:10061000A80EB91E0D351105C1F688E893E08E01CC
:100620000F5F1F4FB8010E94B70488E893E0B8013C
:100630000E94B70488E893E0B8010E94B70488E8F4
:1006400093E0B8010E94B70488E893E0B8010E94E3
:10065000B704A70196019FE05595479537952795D3
:100660009A95D1F7C90100C00F900F90CF91DF91FB
:100670001F910F91FF90EF90DF90CF90BF90AF90C0
:100680009F908F9008958F929F92AF92BF92CF923A
:10069000DF92EF92FF920F931F93DF93CF9300D0DF
:1006A000CDB7DEB777E3A72E72E0B72ECC24DD24DA
:1006B000EE24FF2487014E010894811C911CB60191
:1006C00060957095635A7F4F88E893E0A4010E947B
:1006D000F404882399F469817A81882777FD8095CD
:1006E000982FF50120813181442737FD4095542F03
:1006F0000E940B06E60EF71E081F191F0894C11C66
:10070000D11C82E090E0A80EB91E9DE5C916D10467
:10071000B1F688E893E0BE016F5F7F4F0E94B70497
:10072000A80197016FE055954795379527956A95EC
:10073000D1F7C9010F900F90CF91DF911F910F91C9
:10074000FF90EF90DF90CF90BF90AF909F908F90F1
:1007500008950F931F93DF93CF9300D0CDB7DEB7EB
:1007600010929C138E010F5F1F4F88E893E0B80131
:100770000E94B7048823C9F789819A810F900F904E
:10078000CF91DF911F910F91089588E893E062E97E
:1007900073E040E050E10E94CE030895FC018FB762
:1007A000F8947183608313821282158214821782F7
:1007B0001682518740878FBF0895FC018FB7F89448
:1007C0001382128215821482178216828FBF0895B7
:1007D000DC014FB7F89416962D913C911797189617
:1007E0008D919C9119972817390710F081E025C049
:1007F000ED91FC91119714968D919C911597E80FAE
:10080000F91F608314962D913C91159718968D9140
:100810009C91199701972F5F3F4F82239323159641
:100820009C938E93149716968D919C911797019691
:1008300017969C938E93169780E04FBF0895DF9391
:10084000CF9300D0CDB7DEB7DC017A8369834FB791
:10085000F89416962D913C91179718968D919C912E
:10086000199701972817390710F081E042C0ED91E0
:10087000FC91119714968D919C911597E80FF91F93
:100880008981808314962D913C91159718968D91AE
:100890009C91199701972F5F3F4F822393231596C1
:1008A0009C938E931497ED91FC91119714968D91D2
:1008B0009C911597E80FF91F8A81808314962D91DA
:1008C0003C91159718968D919C91199701972F5FE0
:1008D0003F4F8223932315969C938E9314971696DD
:1008E0008D919C911797029617969C938E931697CD
:1008F00080E04FBF0F900F90CF91DF910895CF937D
:10090000DF93DC01EB014FB7F89416968D919C9123
:100910001797892B11F481E026C0ED91FC91119776
:1009200012968D919C911397E80FF91F808188830F
:1009300012962D913C91139718968D919C91199731
:1009400001972F5F3F4F8223932313969C938E939F
:10095000129716968D919C911797019717969C93D5
:100960008E93169780E04FBFDF91CF910895CF937C
:10097000DF93EC014FB7F8948E819F81029710F4BA
:1009800081E02EC0DB01E881F9818A819B81E80F3B
:10099000F91F80818C932A813B81888599850197F5
:1009A0002F5F3F4F822393239B838A83E881F981C2
:1009B0008A819B81E80FF91F808111968C932A818F
:1009C0003B818885998501972F5F3F4F8223932331
:1009D0009B838A838E819F8102979F838E8380E091
:1009E0004FBFDF91CF9108951F93CF93DF93EC0119
:1009F0001FB7F8948E819F81660F771F8617970720
:100A000010F481E023C0DA01E881F9812A813B8179
:100A100088859985260F371F019728233923E20FF0
:100A2000F31F80818C93E881F9818A819B812885DD
:100A300039850196860F971F2150304082239323DA
:100A4000E80FF91F808111968C9380E01FBFDF9122
:100A5000CF911F910895FC018FB7F89426813781BB
:100A60008FBFC90108951F920F920FB60F921124E4
:100A70000F900FBE0F901F9018951F920F920FB6F8
:100A80000F9211240F900FBE0F901F901895F8949D
:100A900080EC80937C00EAE7F0E085E08083808151
:100AA0008860808380818068808380818062808389
:100AB000EBE7F0E08081856080831092810078947C
:100AC0000895F8949093890080938800969587956F
:100AD0009695879590938B0080938A004093961308
:100AE00050939713609398137093991310929213E5
:100AF00010929313109294131092951310928500F4
:100B000010928400EFE6F0E080818660808310928E
:100B10008000E1E8F0E0808189608083EAE7F0E02E
:100B20008081886080837894089520919613309115
:100B3000971340919813509199138091921390912B
:100B40009313A0919413B091951360E0281739077F
:100B50004A075B0709F061E0862F08951F920F9204
:100B60000FB60F920BB60F9211242F933F934F9312
:100B70005F936F937F938F939F93AF93BF93EF9305
:100B8000FF938091921390919313A0919413B0913D
:100B900095130196A11DB11D809392139093931309
:100BA000A0939413B093951380917800909179005D
:100BB000805092400E94BE0220919613309197136C
:100BC000409198135091991380919213909193139F
:100BD000A0919413B0919513281739074A075B0722
:100BE00039F480917A00877F80937A001092810097
:100BF000FF91EF91BF91AF919F918F917F916F91F5
:100C00005F914F913F912F910F900BBE0F900FBEB0
:100C10000F901F901895629FD001739FF001829FE3
:100C2000E00DF11D649FE00DF11D929FF00D839F7B
:100C3000F00D749FF00D659FF00D9927729FB00D18
:100C4000E11DF91F639FB00DE11DF91FBD01CF012B
:100C500011240895FC0188279927E89421912032D6
:100C6000E9F3293010F02E30C8F32B3241F02D3249
:100C700039F4689404C00E94BE06820F911D219130
:100C800020532A30C0F31EF4909581959F4F08950C
:100C90001F93FC0199278827BC01E8941191103219
:100CA000E9F3193010F01E30C8F31B3251F01D3239
:100CB00049F4689406C00E94A906610F711D811D48
:100CC000911D119110531A30B0F33EF49095809518
:100CD000709561957F4F8F4F9F4F1F9108954AE9FF
:100CE00053E10E9482060895FB01DC01415050400F
:100CF00030F08D910190801919F40020B9F7881B0C
:100D0000990B0895FA01A191B081009719F41097F9
:100D1000E1F0CD01DC01CD010D90002011F4C00106
:100D200013C0FB012191222319F02015D9F7F3CF2D
:100D3000FB012191201519F41E92119606C0222361
:100D4000C1F70D900020A1F7D001FA01A193B08363
:100D50000895592F482F372F262F660F771F881F8A
:100D6000991F660F771F881F991F620F731F841FBB
:100D7000951F660F771F881F991F08957AE0979F28
:100D8000902D879F802D910D11240895F894FFCF09
:100D900048656C6C6F20576F726C64210A00414E7D
:100DA00041002000696E76616C6964207061726137
:100DB0006D657465727300756E6B6E6F776E206310
:100DC0006F6D6D616E6400000000000000FFFFFEAB
:100DD000FFFDFFFDFFFEFF000004000B00110017E8
:100DE00000190014000900F5FFDCFFC1FFABFFA1F3
:100DF000FFA9FFC9FF00004A009B00E40011010F9A
:100E000001D2005500A0FFCAFEF8FD56FD15FD5F9A
:100E1000FD55FE00005202240536083B0BE10DD9BA
:100E20000FEA10F310F10F030E620B5B084005612F
:100E300002000047FE46FDF5FC36FDDEFDB9FE9AD8
:100E4000FF5A00E00024012701F800AA0051000029
:100E500000C3FF9FFF95FFA0FFB9FFD7FFF4FF0A74
:100E60000018001D001B0015000D0006000000FD0D
:100E7000FFFCFFFCFFFDFFFFFFFFFF000000000085
:020E8000000070
:00000001FF
