:100000000C9466000C947D000C947D000C947D0093
:100010000C947D000C947D000C947D000C947D006C
:100020000C947D000C947D000C947D000C947D005C
:100030000C947D000C947D000C947D000C947D004C
:100040000C947D000C947D000C947D000C947D003C
:100050000C947D000C947D000C947D000C947D002C
:100060000C947D000C947D000C947D000C947D001C
:100070000C947D000C949F000C947D000C947D00EA
:100080000C947D000C947D000C947D000C947D00FC
:100090000C947D000C947D000C947D000C947D00EC
:1000A0000C947D000C947D000C947D000C947D00DC
:1000B0000C947D000C947D000C947D000C947D00CC
:1000C0000C947D000C947D000C947D0011241FBEC7
:1000D000CFEFD1E2DEBFCDBF12E0A0E0B2E0EAEEAA
:1000E000F1E000E00BBF02C007900D92A030B10715
:1000F000D9F70E94E8000C94F3000C9400009C01D6
:100100008038910510F488B10FC080589040805815
:10011000914010F4419A0895C90180509240815055
:10012000914020F488B1866088B908952150334009
:100130002F3F310518F488B18E6088B908951F9259
:100140000F920FB60F920BB60F9211242F933F937D
:100150004F935F936F937F938F939F93AF93BF93CF
:10016000EF93FF932091780040917900942F80E0E5
:1001700030E0822B932B0E947F00EAE7F0E0808141
:1001800080648083FF91EF91BF91AF919F918F9198
:100190007F916F915F914F913F912F910F900BBE87
:1001A0000F900FBE0F901F901895ECE7F0E0808144
:1001B00080838081806C8083EAE7F0E080818068C2
:1001C00080838081856080838081886080830895BA
:1001D0000E94D500789480917A00806480937A00A0
:0A01E000399A419AFFCFF894FFCF3F
:00000001FF
