:100000000C9466000C947D000C947D000C947D0093
:100010000C947D000C947D000C947D000C947D006C
:100020000C947D000C947D000C947D000C947D005C
:100030000C947D000C947D000C947D000C947D004C
:100040000C947D000C947D000C947D000C947D003C
:100050000C947D000C947D000C947D000C947D002C
:100060000C947D000C947D000C947D000C947D001C
:100070000C947D000C94A6000C947D000C947D00E3
:100080000C947D000C947D000C947D000C947D00FC
:100090000C947D000C947D000C947D000C947D00EC
:1000A0000C947D000C947D000C947D000C947D00DC
:1000B0000C947D000C947D000C947D000C947D00CC
:1000C0000C947D000C947D000C947D0011241FBEC7
:1000D000CFEFD1E2DEBFCDBF12E0A0E0B2E0E4EFAF
:1000E000F1E000E00BBF02C007900D92A030B10715
:1000F000D9F70E94EC000C94F8000C9400009C01CD
:100100008038910518F488B182630AC08058904005
:100110008058914038F488B18D7C88B988B182616B
:1001200088B90895C901805092408150914028F4C7
:1001300088B18D7C88B9419A0895215033402F3F72
:10014000310518F488B18D7C88B908951F920F92FB
:100150000FB60F920BB60F9211242F933F934F932C
:100160005F936F937F938F939F93AF93BF93EF931F
:10017000FF9380917800909179000E947F00FF9119
:10018000EF91BF91AF919F918F917F916F915F910F
:100190004F913F912F910F900BBE0F900FBE0F907C
:1001A0001F901895ECE7F0E0808180838081806C5F
:1001B0008083EAE7F0E080818068808380818560C9
:1001C0008083808188608083808180628083EBE788
:1001D000F0E08081808308950E94D200789480911D
:1001E0007A00806480937A0087B1826387B9FFCFF9
:0401F000F894FFCFB1
:00000001FF
