:100000000C9466000C947D000C947D000C947D0093
:100010000C947D000C947D000C947D000C947D006C
:100020000C947D000C947D000C947D000C947D005C
:100030000C947D000C947D000C947D000C947D004C
:100040000C947D000C947D000C947D000C947D003C
:100050000C947D000C947D000C947D000C947D002C
:100060000C947D000C947D000C947D000C947D001C
:100070000C947D000C9480000C947D000C947D0009
:100080000C947D000C947D000C947D000C947D00FC
:100090000C947D000C947D000C947D000C947D00EC
:1000A0000C947D000C947D000C947D000C947D00DC
:1000B0000C947D000C947D000C947D000C947D00CC
:1000C0000C947D000C947D000C947D0011241FBEC7
:1000D000CFEFD1E2DEBFCDBF12E0A0E0B2E0E6E7B5
:1000E000F1E000E00BBF02C007900D92A030B10715
:1000F000D9F70E94B0000C94B9000C940000089548
:100100001F920F920FB60F920BB60F9211248F937E
:10011000EF93FF938091780080917900EAE7F0E017
:10012000808180648083FF91EF918F910F900BBE4F
:100130000F900FBE0F901F901895ECE7F0E08081B4
:1001400080838081806C8083EAE7F0E08081806832
:10015000808380818560808380818860808308952A
:100160000E949D00789480917A00806480937A0048
:06017000FFCFF894FFCF61
:00000001FF
