:100000000C9466000C9485000C9485000C9485007B
:100010000C9485000C9485000C9485000C9485004C
:100020000C9485000C9485000C9485000C9485003C
:100030000C9485000C9485000C9485000C9485002C
:100040000C9485000C94B5040C94BF040C948500AA
:100050000C9485000C9485000C9485000C9485000C
:100060000C9485000C9485000C9485000C948500FC
:100070000C9485000C941C050C9485000C94850050
:100080000C9485000C9485000C9485000C948500DC
:100090000C948E010C941F010C9485000C94850027
:1000A0000C9485000C9485000C9485000C948500BC
:1000B0000C9485000C9485000C9485000C948500AC
:1000C0000C9485000C9485000C94850011241FBEAF
:1000D000CFEFD1E2DEBFCDBF12E0A0E0B2E0EAE9AF
:1000E000FCE000E00BBF02C007900D92A034B10706
:1000F000D9F712E1A0E4B2E001C01D92AB3EB10716
:10010000E1F70E9487000C944B060C9400000F93BB
:100110001F93F89480E8809361001092610086E656
:100120009EE00197F1F70E94C9040E94470383E013
:1001300090E00E94C50180E092E00E94820183B7B6
:10014000817F83BF789480E0813019F08230D9F4C8
:1001500004C00E9403058823E1F70E94B602892BA0
:1001600081F08091EA12882319F40E942B0302C0C7
:100170000E94B0028C01C8010E9464018823D9F753
:10018000ECCF0E94B1020E94E9018823E9F683B70F
:10019000816083BF889583B78E7F83BFF4CF209122
:1001A000D4023091D502C90108950F931F93DF93B4
:1001B000CF930F92CDB7DEB78E010F5F1F4F8AE846
:1001C00092E0B8010E9401048823C9F789810F9049
:1001D000CF91DF911F910F910895EF92FF920F93AE
:1001E0001F93CF93DF937C018B018091D402909178
:1001F000D502892B11F481E01BC0C0E0D0E014C00F
:100200000E94D500F701EC0FFD1F80838A3059F45E
:1002100011828091D4029091D50201979093D502DA
:100220008093D40204C02196C017D10748F380E020
:10023000DF91CF911F910F91FF90EF9008951F9242
:100240000F920FB60F920BB60F9211242F933F937C
:100250004F935F936F937F938F939F93AF93BF93CE
:10026000EF93FF93DF93CF930F92CDB7DEB780E488
:1002700092E0BE016F5F7F4F0E940104882321F44A
:1002800089818093CE0005C08091C9008F7D8093C5
:10029000C9000F90CF91DF91FF91EF91BF91AF9186
:1002A0009F918F917F916F915F914F913F912F918E
:1002B0000F900BBE0F900FBE0F901F9018958AE8FD
:1002C00092E00E94AD040895BC0180E492E00E9497
:1002D000A103982F882329F48091C900806280931C
:1002E000C900892F0895682F80E492E00E946A0374
:1002F000982F882329F48091C90080628093C900D7
:10030000892F0895CF93DF93EC0102C00E947301FF
:1003100089918823D9F7DF91CF9108951F920F9289
:100320000FB60F920BB60F9211242F933F934F935A
:100330005F936F937F938F939F93AF93BF93EF934D
:10034000FF936091CE006A3049F48091D40290917D
:10035000D50201969093D5028093D4028AE892E068
:100360000E946A03FF91EF91BF91AF919F918F918E
:100370007F916F915F914F913F912F910F900BBEA5
:100380000F900FBE0F901F9018950F931F938C0125
:100390001092D5021092D40280E492E06AE472E0F6
:1003A00040E450E00E9450038AE892E064E972E081
:1003B00040E450E00E94500388E98093C90086E041
:1003C0008093CA001093CD000093CC001F910F9131
:1003D00008959F92AF92BF92CF92DF92EF92FF92D9
:1003E0000F931F93DF93CF93CDB7DEB7A1970FB6CF
:1003F000F894DEBF0FBECDBF8E010F5F1F4FC80147
:1004000060E270E00E94ED00882309F096C08EE063
:1004100092E0B80143E050E00E94F905009709F02E
:100420007FC0C80162E172E00E94F40580E090E0C4
:1004300062E172E00E94F405009719F4AA24BB243B
:1004400003C00E94AF055C0180E090E062E172E0D1
:100450000E94F405009721F4EE24FF24870107C0D1
:100460000E94CD05AC01CB01DA017C018D0180E059
:1004700090E062E172E00E94F405009711F4992483
:1004800003C00E94AF05982E80E090E062E172E028
:100490000E94F405009719F4CC24DD2403C00E94C7
:1004A000AF056C0180E090E062E172E00E94F4052B
:1004B000009721F00E94AF058093EA12A114B104C5
:1004C00029F1E114F1040105110501F18091EA120D
:1004D000813099F4B801A70182E0440F551F661FCF
:1004E000771F8A95D1F74E0D5F1D601F711F4C5FFE
:1004F0005F4F6F4F7F4FC50103C0C501B801A70112
:10050000292D86010E94E40481E018C084E192E074
:100510000E94820187E20E947301CE01019608C009
:1005200087E292E00E94820187E20E947301C80183
:100530000E94820187E20E94730180E0A1960FB6BB
:10054000F894DEBF0FBECDBFCF91DF911F910F9109
:10055000FF90EF90DF90CF90BF90AF909F90089565
:10056000089586ED92E00E945F03089586ED92E083
:100570000E94AD049C0136952795C9010895BC01E0
:1005800086ED92E00E94A10308958F929F92AF9210
:10059000BF92CF92DF92EF92FF920F931F93DF9360
:1005A000CF9300D0CDB7DEB727E3A22E22E0B22E44
:1005B000CC24DD24EE24FF2487014E010894811C05
:1005C000911CB601609570956C5F7F4F86ED92E04F
:1005D000A4010E947604882399F469817A8188278E
:1005E00077FD8095982FF50120813181442737FDD3
:1005F0004095542F0E949005E60EF71E081F191F04
:100600000894C11CD11C82E090E0A80EB91E94E0B1
:10061000C916D104B1F686ED92E0BE016F5F7F4F3F
:100620000E943904A80197019FE055954795379599
:1006300027959A95D1F7C9010F900F90CF91DF912F
:100640001F910F91FF90EF90DF90CF90BF90AF90F0
:100650009F908F9008950F931F93DF93CF9300D0B7
:10066000CDB7DEB71092EA128E010F5F1F4F86EDF5
:1006700092E0B8010E9439048823C9F789819A81E0
:100680000F900F90CF91DF911F910F91089586EDFC
:1006900092E060EE72E040E050E10E945003089565
:1006A000FC018FB7F89471836083138212821582E4
:1006B000148217821682518740878FBF0895FC01EC
:1006C0008FB7F894138212821582148217821682D1
:1006D0008FBF0895DC014FB7F89416962D913C9189
:1006E000179718968D919C9119972817390710F034
:1006F00081E025C0ED91FC91119714968D919C910C
:100700001597E80FF91F608314962D913C9115976A
:1007100018968D919C91199701972F5F3F4F8223D7
:10072000932315969C938E93149716968D919C9176
:100730001797019617969C938E93169780E04FBF5C
:100740000895DF93CF9300D0CDB7DEB7DC017A8375
:1007500069834FB7F89416962D913C911797189688
:100760008D919C91199701972817390710F081E016
:1007700042C0ED91FC91119714968D919C91159723
:10078000E80FF91F8981808314962D913C9115976C
:1007900018968D919C91199701972F5F3F4F822357
:1007A000932315969C938E931497ED91FC9111973A
:1007B00014968D919C911597E80FF91F8A8180837B
:1007C00014962D913C91159718968D919C9119979F
:1007D00001972F5F3F4F8223932315969C938E930F
:1007E000149716968D919C911797029617969C9345
:1007F0008E93169780E04FBF0F900F90CF91DF91AF
:100800000895CF93DF93DC01EB014FB7F894169670
:100810008D919C911797892B11F481E026C0ED9161
:10082000FC91119712968D919C911397E80FF91FE7
:100830008081888312962D913C91139718968D9103
:100840009C91199701972F5F3F4F82239323139613
:100850009C938E93129716968D919C911797019762
:1008600017969C938E93169780E04FBFDF91CF91A0
:100870000895CF93DF93EC014FB7F8948E819F8159
:10088000029710F481E02EC0DB01E881F9818A81B2
:100890009B81E80FF91F80818C932A813B81888599
:1008A000998501972F5F3F4F822393239B838A83F0
:1008B000E881F9818A819B81E80FF91F8081119677
:1008C0008C932A813B818885998501972F5F3F4FC3
:1008D000822393239B838A838E819F8102979F83A8
:1008E0008E8380E04FBFDF91CF9108951F93CF9308
:1008F000DF93EC011FB7F8948E819F81660F771FFD
:100900008617970710F481E023C0DA01E881F981A6
:100910002A813B8188859985260F371F01972823D7
:100920003923E20FF31F80818C93E881F9818A815A
:100930009B81288539850196860F971F215030406D
:1009400082239323E80FF91F808111968C9380E016
:100950001FBFDF91CF911F910895FC018FB7F894CD
:10096000268137818FBFC90108951F920F920FB65C
:100970000F9211240F900FBE0F901F9018951F9289
:100980000F920FB60F9211240F900FBE0F901F9071
:100990001895ECE7F0E08081806C8083ABE7B0E0F5
:1009A0008C918C93EAE7F0E0808180628083808183
:1009B000856080838C9185608C9380818860808342
:1009C0008081806880830895909389008093880057
:1009D000109285001092840086E080936F00109240
:1009E0008000E1E8F0E08081816080838081886020
:1009F00080831092E0121092E1121092E212109293
:100A0000E3127894089560E02091E0123091E112B1
:100A10004091E2125091E3128091E4129091E5121C
:100A2000A091E612B091E712281739074A075B0731
:100A300009F061E0862F08951F920F920FB60F9272
:100A40000BB60F9211242F933F934F935F936F93A5
:100A50007F938F939F93AF93BF93EF93FF93809177
:100A6000E0129091E112A091E212B091E31201968E
:100A7000A11DB11D8093E0129093E112A093E212A8
:100A8000B093E31280917800909179008050924069
:100A90000E94BF0280917A00806480937A00209146
:100AA000E0123091E1124091E2125091E3128091F4
:100AB000E4129091E512A091E612B091E712281786
:100AC00039074A075B07C9F480917A0080937A005E
:100AD00080918100809381001092E0121092E112C7
:100AE0001092E2121092E3121092E4121092E512A8
:100AF0001092E6121092E712F894FF91EF91BF91D5
:100B0000AF919F918F917F916F915F914F913F91A5
:100B10002F910F900BBE0F900FBE0F901F90189546
:100B2000629FD001739FF001829FE00DF11D649FD1
:100B3000E00DF11D929FF00D839FF00D749FF00D5D
:100B4000659FF00D9927729FB00DE11DF91F639FFE
:100B5000B00DE11DF91FBD01CF0111240895FC0165
:100B600088279927E89421912032E9F3293010F061
:100B70002E30C8F32B3241F02D3239F4689404C082
:100B80000E944306820F911D219120532A30C0F309
:100B90001EF4909581959F4F08951F93FC0199270E
:100BA0008827BC01E89411911032E9F3193010F054
:100BB0001E30C8F31B3251F01D3249F4689406C050
:100BC0000E942E06610F711D811D911D1191105300
:100BD0001A30B0F33EF490958095709561957F4FF3
:100BE0008F4F9F4F1F91089548EE52E10E940706D4
:100BF0000895FB01DC014150504030F08D9101908F
:100C0000801919F40020B9F7881B990B0895FA018F
:100C1000A191B081009719F41097E1F0CD01DC01AA
:100C2000CD010D90002011F4C00113C0FB012191F2
:100C3000222319F02015D9F7F3CFFB0121912015BC
:100C400019F41E92119606C02223C1F70D900020C0
:100C5000A1F7D001FA01A193B0830895592F482F2D
:100C6000372F262F660F771F881F991F660F771F54
:100C7000881F991F620F731F841F951F660F771FB0
:100C8000881F991F08957AE0979F902D879F802D48
:0A0C9000910D11240895F894FFCF90
:100C9A0048656C6C6F20576F726C64210A00414E74
:100CAA0041002000696E76616C696420706172612E
:100CBA006D657465727300756E6B6E6F776E206307
:100CCA006F6D6D616E64000100010001000100009A
:00000001FF
